:100000000C9456000C9468000C9468000C946800E2
:100010000C9468000C9468000C9468000C946800C0
:100020000C9468000C9468000C9468000C946800B0
:100030000C9468000C9468000C9468000C946800A0
:100040000C9468000C9468000C9468000C94680090
:100050000C9468000C9468000C9468000C94680080
:100060000C9468000C9468000C9468000C94680070
:100070000C9468000C9468000C9468000C94680060
:100080000C9468000C9468000C9468000C94680050
:100090000C9468000C9468000C9468000C94680040
:1000A0000C9468000C9468000C94680011241FBE26
:1000B000CFEFDAE0DEBFCDBF11E0A0E0B1E001C0DC
:1000C0001D92A130B107E1F70E946A000C94290348
:1000D0000C9400002F923F924F925F926F927F920A
:1000E0008F929F92AF92BF92CF92DF92EF92FF9248
:1000F0000F931F93DF93CF9300D000D00F92CDB713
:10010000DEB780E88093610010926100239A6091CD
:1001100000012AE0629FB001112408EE13E0061BE3
:10012000170B80E090E00E9410021B012C012BEACB
:100130003AEA4AEA50E40E94C6023B014C010E949E
:10014000E4016983C801A0E0B0E08A839B83AC83AB
:10015000BD832B9AC401B30120E030E040E85FE3A7
:100160000E94780187FD50C0C401B30120E030E057
:100170004FE753E40E94C202181614F0898145C06B
:10018000C201B10120E030E04AE754E40E947C0162
:100190005B016C0120E030E04AE755E40E94C602B2
:1001A0007B018C0120E030E040E85FE30E947801B1
:1001B00088231CF461E070E023C0C801B70120E08F
:1001C0003FEF4FE757E40E94C2021816ACF4C60195
:1001D000B50120E030E040E251E40E94C6020E94F6
:1001E000E40106C080E991E00197F1F761507040A9
:1001F00061157105B9F70BC0C801B7010E94E40190
:10020000CB010197F1F703C081E08A95F1F72B98B4
:100210006A817B818C819D810E9410025B016C014F
:100220002BEA3AEA4AEA50E40E94C6027B018C01BA
:1002300020E030E040E85FE30E947801882314F476
:1002400061E053C0C801B70120E030E04FE753E45C
:100250000E94C20218160CF044C0C601B50120E08D
:1002600030E04AE754E40E947C015B016C0120E02D
:1002700030E04AE755E40E94C6027B018C0120E091
:1002800030E040E85FE30E94780188231CF461E0DD
:1002900070E023C0C801B70120E03FEF4FE757E40B
:1002A0000E94C2021816ACF4C601B50120E030E08D
:1002B00040E251E40E94C6020E94E40106C080E9C7
:1002C00091E00197F1F76150704061157105B9F740
:1002D00040CFC801B7010E94E401CB010197F1F7BB
:1002E00038CFC801B7010E94E4016A95F1F731CF18
:1002F000D4D008F481E008950CD00AC102D140F0B6
:10030000F9D030F021F45F3F19F0EBC0511134C146
:10031000EEC00FD198F39923C9F35523B1F3951B80
:10032000550BBB27AA2762177307840738F09F5F16
:100330005F4F220F331F441FAA1FA9F333D00E2E85
:100340003AF0E0E830D091505040E695001CCAF7F2
:1003500029D0FE2F27D0660F771F881FBB1F2617B7
:1003600037074807AB07B0E809F0BB0B802DBF018A
:10037000FF2793585F4F2AF09E3F510568F0B1C0A8
:10038000FBC05F3FECF3983EDCF38695779567956D
:10039000B795F7959F5FC9F7880F911D969587953B
:1003A00097F90895E1E0660F771F881FBB1F62175A
:1003B00073078407BA0720F0621B730B840BBA0B18
:1003C000EE1F88F7E0950895BCD088F09F5790F015
:1003D000B92F9927B751A0F0D1F0660F771F881F6A
:1003E000991F1AF0BA95C9F712C0B13081F0C3D085
:1003F000B1E00895C0C0672F782F8827B85F39F023
:10040000B93FCCF3869577956795B395D9F73EF4C8
:1004100090958095709561957F4F8F4F9F4F089570
:10042000E89409C097FB3EF490958095709561958E
:100430007F4F8F4F9F4F9923A9F0F92F96E9BB2744
:100440009395F695879577956795B795F111F8CFC0
:10045000FAF4BB0F11F460FF1BC06F5F7F4F8F4F2B
:100460009F4F16C0882311F096E911C0772321F021
:100470009EE8872F762F05C0662371F096E8862FB9
:1004800070E060E02AF09A95660F771F881FDAF710
:10049000880F9695879597F90895990F0008550F3D
:1004A000AA0BE0E8FEEF16161706E807F907C0F0FA
:1004B00012161306E407F50798F0621B730B840B02
:1004C000950B39F40A2661F0232B242B252B21F4DC
:1004D00008950A2609F4A140A6958FEF811D811D7C
:1004E000089597F99F6780E870E060E008959FEFB6
:1004F00080EC089500240A941616170618060906BB
:10050000089500240A941216130614060506089589
:10051000092E0394000C11F4882352F0BB0F40F411
:10052000BF2B11F460FF04C06F5F7F4F8F4F9F4F51
:10053000089557FD9058440F551F59F05F3F71F0D3
:100540004795880F97FB991F61F09F3F79F087953A
:100550000895121613061406551FF2CF4695F1DFC3
:1005600008C0161617061806991FF1CF8695710553
:10057000610508940895E894BB2766277727CB0187
:1005800097F908958ADF08F48FEF08950BD0C0CF54
:10059000B1DF28F0B6DF18F0952309F0A2CFA7CF7E
:1005A0001124EACFC6DFA0F3959FD1F3950F50E059
:1005B000551F629FF001729FBB27F00DB11D639F15
:1005C000AA27F00DB11DAA1F649F6627B00DA11DBB
:1005D000661F829F2227B00DA11D621F739FB00D61
:1005E000A11D621F839FA00D611D221F749F3327D1
:1005F000A00D611D231F849F600D211D822F762F6A
:100600006A2F11249F5750408AF0E1F088234AF066
:10061000EE0FFF1FBB1F661F771F881F91505040B2
:10062000A9F79E3F510570F05CCFA6CF5F3FECF37A
:10063000983EDCF3869577956795B795F795E7959E
:100640009F5FC1F7FE2B880F911D9695879597F9AF
:060650000895F894FFCFAD
:00000001FF
